{
  "_format": "hh-sol-artifact-1",
  "contractName": "HealthcareRecords",
  "sourceName": "contracts/HealthcareRecords.sol",
  "abi": [
    {
      "inputs": [
        {
          "internalType": "string",
          "name": "_patientId",
          "type": "string"
        },
        {
          "internalType": "string",
          "name": "_name",
          "type": "string"
        },
        {
          "internalType": "uint256",
          "name": "_age",
          "type": "uint256"
        },
        {
          "internalType": "string",
          "name": "_disease",
          "type": "string"
        }
      ],
      "name": "addPatient",
      "outputs": [],
      "stateMutability": "nonpayable",
      "type": "function"
    },
    {
      "inputs": [
        {
          "internalType": "address",
          "name": "",
          "type": "address"
        }
      ],
      "name": "doctors",
      "outputs": [
        {
          "internalType": "bool",
          "name": "",
          "type": "bool"
        }
      ],
      "stateMutability": "view",
      "type": "function"
    },
    {
      "inputs": [
        {
          "internalType": "string",
          "name": "_patientId",
          "type": "string"
        }
      ],
      "name": "getPatient",
      "outputs": [
        {
          "components": [
            {
              "internalType": "string",
              "name": "name",
              "type": "string"
            },
            {
              "internalType": "uint256",
              "name": "age",
              "type": "uint256"
            },
            {
              "internalType": "string",
              "name": "disease",
              "type": "string"
            },
            {
              "internalType": "address",
              "name": "doctorAssigned",
              "type": "address"
            }
          ],
          "internalType": "struct HealthcareRecords.Patient",
          "name": "",
          "type": "tuple"
        }
      ],
      "stateMutability": "view",
      "type": "function"
    },
    {
      "inputs": [
        {
          "internalType": "address",
          "name": "_address",
          "type": "address"
        }
      ],
      "name": "isDoctor",
      "outputs": [
        {
          "internalType": "bool",
          "name": "",
          "type": "bool"
        }
      ],
      "stateMutability": "view",
      "type": "function"
    },
    {
      "inputs": [
        {
          "internalType": "address",
          "name": "_doctor",
          "type": "address"
        }
      ],
      "name": "registerDoctor",
      "outputs": [],
      "stateMutability": "nonpayable",
      "type": "function"
    },
    {
      "inputs": [
        {
          "internalType": "string",
          "name": "_patientId",
          "type": "string"
        },
        {
          "internalType": "string",
          "name": "_disease",
          "type": "string"
        }
      ],
      "name": "updatePatient",
      "outputs": [],
      "stateMutability": "nonpayable",
      "type": "function"
    }
  ],
  "bytecode": "0x608060405234801561001057600080fd5b50610b5f806100206000396000f3fe608060405234801561001057600080fd5b50600436106100625760003560e01c806342074765146100675780635be0174614610083578063699ca9981461009f578063996440c6146100bb578063a9583c22146100eb578063e79a7a2e1461011b575b600080fd5b610081600480360381019061007c9190610748565b61014b565b005b61009d600480360381019061009891906106dc565b610234565b005b6100b960048036038101906100b49190610672565b610273565b005b6100d560048036038101906100d09190610672565b6102cd565b6040516100e2919061090b565b60405180910390f35b61010560048036038101906101009190610672565b610323565b604051610112919061090b565b60405180910390f35b6101356004803603810190610130919061069b565b610343565b6040516101429190610926565b60405180910390f35b60405180608001604052808481526020018381526020018281526020013373ffffffffffffffffffffffffffffffffffffffff1681525060008560405161019291906108f4565b908152602001604051809103902060008201518160000190805190602001906101bc9291906104ff565b506020820151816001015560408201518160020190805190602001906101e39291906104ff565b5060608201518160030160006101000a81548173ffffffffffffffffffffffffffffffffffffffff021916908373ffffffffffffffffffffffffffffffffffffffff16021790555090505050505050565b6000808360405161024591906108f4565b908152602001604051809103902090508181600201908051906020019061026d9291906104ff565b50505050565b60018060008373ffffffffffffffffffffffffffffffffffffffff1673ffffffffffffffffffffffffffffffffffffffff16815260200190815260200160002060006101000a81548160ff02191690831515021790555050565b6000600160008373ffffffffffffffffffffffffffffffffffffffff1673ffffffffffffffffffffffffffffffffffffffff16815260200190815260200160002060009054906101000a900460ff169050919050565b60016020528060005260406000206000915054906101000a900460ff1681565b61034b610585565b60008260405161035b91906108f4565b908152602001604051809103902060405180608001604052908160008201805461038490610a5a565b80601f01602080910402602001604051908101604052809291908181526020018280546103b090610a5a565b80156103fd5780601f106103d2576101008083540402835291602001916103fd565b820191906000526020600020905b8154815290600101906020018083116103e057829003601f168201915b505050505081526020016001820154815260200160028201805461042090610a5a565b80601f016020809104026020016040519081016040528092919081815260200182805461044c90610a5a565b80156104995780601f1061046e57610100808354040283529160200191610499565b820191906000526020600020905b81548152906001019060200180831161047c57829003601f168201915b505050505081526020016003820160009054906101000a900473ffffffffffffffffffffffffffffffffffffffff1673ffffffffffffffffffffffffffffffffffffffff1673ffffffffffffffffffffffffffffffffffffffff16815250509050919050565b82805461050b90610a5a565b90600052602060002090601f01602090048101928261052d5760008555610574565b82601f1061054657805160ff1916838001178555610574565b82800160010185558215610574579182015b82811115610573578251825591602001919060010190610558565b5b50905061058191906105c3565b5090565b6040518060800160405280606081526020016000815260200160608152602001600073ffffffffffffffffffffffffffffffffffffffff1681525090565b5b808211156105dc5760008160009055506001016105c4565b5090565b60006105f36105ee84610979565b610948565b90508281526020810184848401111561060b57600080fd5b610616848285610a18565b509392505050565b60008135905061062d81610afb565b92915050565b600082601f83011261064457600080fd5b81356106548482602086016105e0565b91505092915050565b60008135905061066c81610b12565b92915050565b60006020828403121561068457600080fd5b60006106928482850161061e565b91505092915050565b6000602082840312156106ad57600080fd5b600082013567ffffffffffffffff8111156106c757600080fd5b6106d384828501610633565b91505092915050565b600080604083850312156106ef57600080fd5b600083013567ffffffffffffffff81111561070957600080fd5b61071585828601610633565b925050602083013567ffffffffffffffff81111561073257600080fd5b61073e85828601610633565b9150509250929050565b6000806000806080858703121561075e57600080fd5b600085013567ffffffffffffffff81111561077857600080fd5b61078487828801610633565b945050602085013567ffffffffffffffff8111156107a157600080fd5b6107ad87828801610633565b93505060406107be8782880161065d565b925050606085013567ffffffffffffffff8111156107db57600080fd5b6107e787828801610633565b91505092959194509250565b6107fc816109d0565b82525050565b61080b816109e2565b82525050565b600061081c826109a9565b61082681856109b4565b9350610836818560208601610a27565b61083f81610aea565b840191505092915050565b6000610855826109a9565b61085f81856109c5565b935061086f818560208601610a27565b80840191505092915050565b600060808301600083015184820360008601526108988282610811565b91505060208301516108ad60208601826108e5565b50604083015184820360408601526108c58282610811565b91505060608301516108da60608601826107f3565b508091505092915050565b6108ee81610a0e565b82525050565b6000610900828461084a565b915081905092915050565b60006020820190506109206000830184610802565b92915050565b60006020820190508181036000830152610940818461087b565b905092915050565b6000604051905081810181811067ffffffffffffffff8211171561096f5761096e610abb565b5b8060405250919050565b600067ffffffffffffffff82111561099457610993610abb565b5b601f19601f8301169050602081019050919050565b600081519050919050565b600082825260208201905092915050565b600081905092915050565b60006109db826109ee565b9050919050565b60008115159050919050565b600073ffffffffffffffffffffffffffffffffffffffff82169050919050565b6000819050919050565b82818337600083830152505050565b60005b83811015610a45578082015181840152602081019050610a2a565b83811115610a54576000848401525b50505050565b60006002820490506001821680610a7257607f821691505b60208210811415610a8657610a85610a8c565b5b50919050565b7f4e487b7100000000000000000000000000000000000000000000000000000000600052602260045260246000fd5b7f4e487b7100000000000000000000000000000000000000000000000000000000600052604160045260246000fd5b6000601f19601f8301169050919050565b610b04816109d0565b8114610b0f57600080fd5b50565b610b1b81610a0e565b8114610b2657600080fd5b5056fea2646970667358221220602433970075a867d113b21f7828ad2259626801ebd44234bf6a47258b7ede1864736f6c63430008000033",
  "linkReferences": {},
  "deployedLinkReferences": {}
}